{
  "address": "0x9A676e781A523b5d0C0e43731313A708CB607508",
  "abi": [
    {
      "inputs": [
        {
          "internalType": "address",
          "name": "priceFeedAddress",
          "type": "address"
        }
      ],
      "stateMutability": "nonpayable",
      "type": "constructor"
    },
    {
      "inputs": [],
      "name": "FundMe__NotOwner",
      "type": "error"
    },
    {
      "inputs": [],
      "name": "MINIMUM_USD",
      "outputs": [
        {
          "internalType": "uint256",
          "name": "",
          "type": "uint256"
        }
      ],
      "stateMutability": "view",
      "type": "function"
    },
    {
      "inputs": [
        {
          "internalType": "address",
          "name": "",
          "type": "address"
        }
      ],
      "name": "addressToAmountFunded",
      "outputs": [
        {
          "internalType": "uint256",
          "name": "",
          "type": "uint256"
        }
      ],
      "stateMutability": "view",
      "type": "function"
    },
    {
      "inputs": [],
      "name": "fund",
      "outputs": [],
      "stateMutability": "payable",
      "type": "function"
    },
    {
      "inputs": [
        {
          "internalType": "uint256",
          "name": "",
          "type": "uint256"
        }
      ],
      "name": "funders",
      "outputs": [
        {
          "internalType": "address",
          "name": "",
          "type": "address"
        }
      ],
      "stateMutability": "view",
      "type": "function"
    },
    {
      "inputs": [],
      "name": "owner",
      "outputs": [
        {
          "internalType": "address",
          "name": "",
          "type": "address"
        }
      ],
      "stateMutability": "view",
      "type": "function"
    },
    {
      "inputs": [],
      "name": "priceFeed",
      "outputs": [
        {
          "internalType": "contract AggregatorV3Interface",
          "name": "",
          "type": "address"
        }
      ],
      "stateMutability": "view",
      "type": "function"
    },
    {
      "inputs": [],
      "name": "withdraw",
      "outputs": [],
      "stateMutability": "nonpayable",
      "type": "function"
    }
  ],
  "transactionHash": "0x15a384a292d186d3f1a6c71eb8fdec5564d3041b5c1622f38f7d6ac8fcf03776",
  "args": [
    "0x5FbDB2315678afecb367f032d93F642f64180aa3"
  ],
  "numDeployments": 2,
  "solcInputHash": "a4738b166a74d07e6d6f7dc2e93496e5",
  "bytecode": "0x60a060405234801561001057600080fd5b5060405162000fca38038062000fca83398181016040528101906100349190610114565b3373ffffffffffffffffffffffffffffffffffffffff1660808173ffffffffffffffffffffffffffffffffffffffff1660601b81525050806000806101000a81548173ffffffffffffffffffffffffffffffffffffffff021916908373ffffffffffffffffffffffffffffffffffffffff16021790555050610141565b600080fd5b600073ffffffffffffffffffffffffffffffffffffffff82169050919050565b60006100e1826100b6565b9050919050565b6100f1816100d6565b81146100fc57600080fd5b50565b60008151905061010e816100e8565b92915050565b60006020828403121561012a576101296100b1565b5b6000610138848285016100ff565b91505092915050565b60805160601c610e636200016760003960008181610193015261041b0152610e636000f3fe6080604052600436106100705760003560e01c8063741bef1a1161004e578063741bef1a146100f45780638da5cb5b1461011f578063b60d42881461014a578063dc0d3dff1461015457610070565b80633ccfd60b146100755780633e47d6f31461008c5780636b69a592146100c9575b600080fd5b34801561008157600080fd5b5061008a610191565b005b34801561009857600080fd5b506100b360048036038101906100ae919061079b565b6103d0565b6040516100c091906107e1565b60405180910390f35b3480156100d557600080fd5b506100de6103e8565b6040516100eb91906107e1565b60405180910390f35b34801561010057600080fd5b506101096103f5565b604051610116919061085b565b60405180910390f35b34801561012b57600080fd5b50610134610419565b6040516101419190610885565b60405180910390f35b61015261043d565b005b34801561016057600080fd5b5061017b600480360381019061017691906108cc565b610576565b6040516101889190610885565b60405180910390f35b7f000000000000000000000000000000000000000000000000000000000000000073ffffffffffffffffffffffffffffffffffffffff163373ffffffffffffffffffffffffffffffffffffffff1614610216576040517f579610db00000000000000000000000000000000000000000000000000000000815260040160405180910390fd5b60005b6001805490508110156102c05760006001828154811061023c5761023b6108f9565b5b9060005260206000200160009054906101000a900473ffffffffffffffffffffffffffffffffffffffff1690506000600260008373ffffffffffffffffffffffffffffffffffffffff1673ffffffffffffffffffffffffffffffffffffffff1681526020019081526020016000208190555050806102b990610957565b9050610219565b50600067ffffffffffffffff8111156102dc576102db6109a0565b5b60405190808252806020026020018201604052801561030a5781602001602082028036833780820191505090505b5060019080519060200190610320929190610691565b5060003373ffffffffffffffffffffffffffffffffffffffff164760405161034790610a00565b60006040518083038185875af1925050503d8060008114610384576040519150601f19603f3d011682016040523d82523d6000602084013e610389565b606091505b50509050806103cd576040517f08c379a00000000000000000000000000000000000000000000000000000000081526004016103c490610a72565b60405180910390fd5b50565b60026020528060005260406000206000915090505481565b6802b5e3af16b188000081565b60008054906101000a900473ffffffffffffffffffffffffffffffffffffffff1681565b7f000000000000000000000000000000000000000000000000000000000000000081565b6802b5e3af16b188000061047a60008054906101000a900473ffffffffffffffffffffffffffffffffffffffff16346105b590919063ffffffff16565b10156104bb576040517f08c379a00000000000000000000000000000000000000000000000000000000081526004016104b290610ade565b60405180910390fd5b6001339080600181540180825580915050600190039060005260206000200160009091909190916101000a81548173ffffffffffffffffffffffffffffffffffffffff021916908373ffffffffffffffffffffffffffffffffffffffff16021790555034600260003373ffffffffffffffffffffffffffffffffffffffff1673ffffffffffffffffffffffffffffffffffffffff168152602001908152602001600020600082825461056d9190610afe565b92505081905550565b6001818154811061058657600080fd5b906000526020600020016000915054906101000a900473ffffffffffffffffffffffffffffffffffffffff1681565b6000806105c1836105f1565b90506000670de0b6b3a764000085836105da9190610b54565b6105e49190610bdd565b9050809250505092915050565b6000808273ffffffffffffffffffffffffffffffffffffffff1663feaf968c6040518163ffffffff1660e01b815260040160a06040518083038186803b15801561063a57600080fd5b505afa15801561064e573d6000803e3d6000fd5b505050506040513d601f19601f820116820180604052508101906106729190610c9b565b5050509150506402540be400816106899190610d16565b915050919050565b82805482825590600052602060002090810192821561070a579160200282015b828111156107095782518260006101000a81548173ffffffffffffffffffffffffffffffffffffffff021916908373ffffffffffffffffffffffffffffffffffffffff160217905550916020019190600101906106b1565b5b509050610717919061071b565b5090565b5b8082111561073457600081600090555060010161071c565b5090565b600080fd5b600073ffffffffffffffffffffffffffffffffffffffff82169050919050565b60006107688261073d565b9050919050565b6107788161075d565b811461078357600080fd5b50565b6000813590506107958161076f565b92915050565b6000602082840312156107b1576107b0610738565b5b60006107bf84828501610786565b91505092915050565b6000819050919050565b6107db816107c8565b82525050565b60006020820190506107f660008301846107d2565b92915050565b6000819050919050565b600061082161081c6108178461073d565b6107fc565b61073d565b9050919050565b600061083382610806565b9050919050565b600061084582610828565b9050919050565b6108558161083a565b82525050565b6000602082019050610870600083018461084c565b92915050565b61087f8161075d565b82525050565b600060208201905061089a6000830184610876565b92915050565b6108a9816107c8565b81146108b457600080fd5b50565b6000813590506108c6816108a0565b92915050565b6000602082840312156108e2576108e1610738565b5b60006108f0848285016108b7565b91505092915050565b7f4e487b7100000000000000000000000000000000000000000000000000000000600052603260045260246000fd5b7f4e487b7100000000000000000000000000000000000000000000000000000000600052601160045260246000fd5b6000610962826107c8565b91507fffffffffffffffffffffffffffffffffffffffffffffffffffffffffffffffff82141561099557610994610928565b5b600182019050919050565b7f4e487b7100000000000000000000000000000000000000000000000000000000600052604160045260246000fd5b600081905092915050565b50565b60006109ea6000836109cf565b91506109f5826109da565b600082019050919050565b6000610a0b826109dd565b9150819050919050565b600082825260208201905092915050565b7f43616c6c206661696c6564000000000000000000000000000000000000000000600082015250565b6000610a5c600b83610a15565b9150610a6782610a26565b602082019050919050565b60006020820190508181036000830152610a8b81610a4f565b9050919050565b7f4469646e27742073656e6420656e6f7567680000000000000000000000000000600082015250565b6000610ac8601283610a15565b9150610ad382610a92565b602082019050919050565b60006020820190508181036000830152610af781610abb565b9050919050565b6000610b09826107c8565b9150610b14836107c8565b9250827fffffffffffffffffffffffffffffffffffffffffffffffffffffffffffffffff03821115610b4957610b48610928565b5b828201905092915050565b6000610b5f826107c8565b9150610b6a836107c8565b9250817fffffffffffffffffffffffffffffffffffffffffffffffffffffffffffffffff0483118215151615610ba357610ba2610928565b5b828202905092915050565b7f4e487b7100000000000000000000000000000000000000000000000000000000600052601260045260246000fd5b6000610be8826107c8565b9150610bf3836107c8565b925082610c0357610c02610bae565b5b828204905092915050565b600069ffffffffffffffffffff82169050919050565b610c2d81610c0e565b8114610c3857600080fd5b50565b600081519050610c4a81610c24565b92915050565b6000819050919050565b610c6381610c50565b8114610c6e57600080fd5b50565b600081519050610c8081610c5a565b92915050565b600081519050610c95816108a0565b92915050565b600080600080600060a08688031215610cb757610cb6610738565b5b6000610cc588828901610c3b565b9550506020610cd688828901610c71565b9450506040610ce788828901610c86565b9350506060610cf888828901610c86565b9250506080610d0988828901610c3b565b9150509295509295909350565b6000610d2182610c50565b9150610d2c83610c50565b9250827f7fffffffffffffffffffffffffffffffffffffffffffffffffffffffffffffff0482116000841360008413161615610d6b57610d6a610928565b5b817f80000000000000000000000000000000000000000000000000000000000000000583126000841260008413161615610da857610da7610928565b5b827f80000000000000000000000000000000000000000000000000000000000000000582126000841360008412161615610de557610de4610928565b5b827f7fffffffffffffffffffffffffffffffffffffffffffffffffffffffffffffff0582126000841260008412161615610e2257610e21610928565b5b82820290509291505056fea2646970667358221220046a1a515161ff89de5b7fb64c4d1767860112601f59253a42c78b7d561b5ae964736f6c63430008080033",
  "devdoc": {
    "kind": "dev",
    "methods": {},
    "version": 1
  },
  "userdoc": {
    "kind": "user",
    "methods": {},
    "version": 1
  },
  "storageLayout": {
    "storage": [
      {
        "astId": 62,
        "contract": "contracts/FundMe.sol:FundMe",
        "label": "priceFeed",
        "offset": 0,
        "slot": "0",
        "type": "t_contract(AggregatorV3Interface)45"
      },
      {
        "astId": 65,
        "contract": "contracts/FundMe.sol:FundMe",
        "label": "funders",
        "offset": 0,
        "slot": "1",
        "type": "t_array(t_address)dyn_storage"
      },
      {
        "astId": 69,
        "contract": "contracts/FundMe.sol:FundMe",
        "label": "addressToAmountFunded",
        "offset": 0,
        "slot": "2",
        "type": "t_mapping(t_address,t_uint256)"
      }
    ],
    "types": {
      "t_address": {
        "encoding": "inplace",
        "label": "address",
        "numberOfBytes": "20"
      },
      "t_array(t_address)dyn_storage": {
        "base": "t_address",
        "encoding": "dynamic_array",
        "label": "address[]",
        "numberOfBytes": "32"
      },
      "t_contract(AggregatorV3Interface)45": {
        "encoding": "inplace",
        "label": "contract AggregatorV3Interface",
        "numberOfBytes": "20"
      },
      "t_mapping(t_address,t_uint256)": {
        "encoding": "mapping",
        "key": "t_address",
        "label": "mapping(address => uint256)",
        "numberOfBytes": "32",
        "value": "t_uint256"
      },
      "t_uint256": {
        "encoding": "inplace",
        "label": "uint256",
        "numberOfBytes": "32"
      }
    }
  }
}